:020000040000FA
:020000000328D3
:040002000034003492
:0A00060007309F000313831600303B
:100010008600831221308600472000000000223035
:1000200086001D20000000000C30860047200000E4
:100030000000143086001D200A280230B3003C3036
:10004000B000000000000000000000000000000000
:1000500000000000000000003630B1000000000089
:100060000000000000000000000000000000000090
:100070000000000000003230B200B20B3D28B10B8E
:100080003B28B00B2C28B30B1F28000008000A30B7
:10009000B3003C30B0000000000000000000000091
:1000A0000000000000000000000000000000000050
:1000B000000000003630B100000000000000000029
:1000C0000000000000000000000000000000000030
:1000D00000003230B200B20B6B28B10B6928B00BB4
:0A00E0005A28B30B4928000008005D
:02400E00193F58
:00000001FF
